:100000000C94A3010C94CB010C94CB010C9408111B
:100010000C9408110C9408110C94CB010C94CB0196
:100020000C94CB010C94CB010C94CB010C94CB0120
:100030000C94CB010C94CB010C94CB010C94CB0110
:100040000C9466100C94CB010C94D6100C94B01048
:100050000C94CB010C94CB010C94CB010C94CB01F0
:100060000C94CB010C94CB015D2000626C6E6B692B
:100070006E66006D637500302E302E300066772D71
:100080007479706500544D504C365138654D516F40
:100090004F62006275696C64004A756E20313320CE
:1000A000323032342031393A35373A333700626CE6
:1000B000796E6B00312E332E3200682D62656174CB
:1000C00000343500627566662D696E003235360083
:1000D0006465760041726475696E6F20556E6F00BD
:1000E0006370750041546D65676133323850006349
:1000F0006F6E0053747265616D0000000D0A202060
:1001000020205F5F5F20205F5F20202020202020B4
:100110002020205F5F0D0A2020202F205F20292F24
:10012000202F5F205F5F5F5F5F20202F202F5F5FAA
:100130000D0A20202F205F20202F202F202F2F205E
:100140002F205F205C2F2020275F2F0D0A202F5F9C
:100150005F5F5F2F5F2F5C5F2C202F5F2F2F5F2F44
:100160005F2F5C5F5C0D0A20202020202020202FA4
:100170005F5F5F2F2076312E332E32206F6E20414D
:10018000726475696E6F20556E6F0D0A0D0A20231B
:100190005374616E6457697468556B7261696E65FA
:1001A0002020202068747470733A2F2F6269742E97
:1001B0006C792F737775610D0A0D0A00000000003D
:1001C000240027002A00436F6E6E656374696E67B2
:1001D0002E2E2E006D73292E005265616479202821
:1001E00070696E673A2000000000080002010000FC
:1001F0000304070000000000000000CE01CE01CE85
:1002000001CE01CE01CE01CE01CE01CE01CE01CE76
:1002100001CE01CE01CE01CE01CE01CE01CE01CE66
:1002200001CE01CE01CE01CE01CE01CE01CE01CE56
:1002300001CE01CE01CE01CE01CE01CD01CD01CD49
:1002400001CD01CD01CD01CD01CD01CD01CD01CD3E
:1002500001CD01CD01CD01CD01CD01CD01CD01CD2E
:1002600001CD01CD01CD01CD01CD01CD01CD01CD1E
:1002700001CD01CD01CD01CD01CD01496E76616C7D
:10028000696420485720636D643A20005365727694
:1002900065723A20005265646972656374696E67BD
:1002A00020746F20005265616479005061636B6552
:1002B0007420746F6F206269673A2000436F6E6E1E
:1002C000656374206661696C65642E20636F646584
:1002D0003A2000496E76616C69642061757468200B
:1002E000746F6B656E004C6F67696E2074696D6525
:1002F0006F75740048656172746265617420746919
:100300006D656F7574000000000023002600290051
:1003100000000000250028002B000404040404044D
:1003200004040202020202020303030303030102A4
:100330000408102040800102040810200102040873
:1003400010208011531511241FBECFEFD8E0DEBF5F
:10035000CDBF11E0A0E0B1E0EAE7F3E302C0059011
:100360000D92AA38B107D9F723E0AAE8B1E001C09D
:100370001D92A638B207E1F711E0C2EAD1E004C04D
:100380002197FE010E947A19C13AD107C9F70E944C
:100390009B120C94B0190C94000008950895CF920C
:1003A000DF92EF92FF92CF93DF93B0913103A0E001
:1003B0008111AB2F8091320390E0880F991FAC011F
:1003C0004A5F5C4FC0903703D0903803E090390308
:1003D000F0903A0330E020E0FA01C591D491E88131
:1003E000B90190E080E0EB23EA130AC02F5F3F4F92
:1003F0006C157D058E059F0578F36FEF7FEFCB01C0
:10040000DF91CF91FF90EF90DF90CF9008958330F0
:1004100081F028F4813099F08230A9F00895873076
:10042000A9F08830C9F08430B1F4809180008F7DCC
:1004300003C0809180008F7780938000089584B5F9
:100440008F7784BD089584B58F7DFBCF8091B000F8
:100450008F778093B00008958091B0008F7DF9CFA1
:100460001F93CF93DF93282F30E0F901E951FE4F1E
:100470008491F901E25DFC4FD491F901E65EFC4FF5
:10048000C491CC23A9F0162F81110E940702EC2FF2
:10049000F0E0EE0FFF1FE05FFC4FA591B4918FB726
:1004A000F894EC91111108C0D095DE23DC938FBF36
:1004B000DF91CF911F910895DE2BF8CFCF93DF937B
:1004C00090E0FC01E25DFC4F2491865E9C4FFC01B4
:1004D00084918823C9F090E0880F991FFC01E454AF
:1004E000FE4FA591B491FC01E05FFC4FC591D49102
:1004F00061110DC09FB7F8948C91209582238C9345
:100500008881282328839FBFDF91CF91089562308F
:1005100051F49FB7F8943C91822F809583238C935C
:10052000E8812E2BEFCF8FB7F894EC912E2B2C93E4
:100530008FBFEACF3FB7F8948091D7019091D8014F
:10054000A091D901B091DA0126B5A89B05C02F3F33
:1005500019F00196A11DB11D3FBFBA2FA92F982FE9
:100560008827BC01CD01620F711D811D911D42E0E4
:10057000660F771F881F991F4A95D1F708958F92AC
:100580009F92AF92BF92CF92DF92EF92FF926B0158
:100590007C010E949A024B015C01C114D104E10468
:1005A000F104B9F00E949A02681979098A099B0935
:1005B000683E73408105910580F321E0C21AD1089D
:1005C000E108F10888EE880E83E0981EA11CB11C9A
:1005D000E4CFFF90EF90DF90CF90BF90AF909F90CF
:1005E0008F9008952FB7F8946091D3017091D40142
:1005F0008091D5019091D6012FBF0895CF92DF92BF
:10060000EF92FF920F931F93CF93DF93CDB7DEB797
:10061000C054D1400FB6F894DEBF0FBECDBF0E94CC
:10062000F20200913303109134032091350330918D
:1006300036036B017C01C01AD10AE20AF30A970162
:100640008601003D17402105310590F480913B0360
:10065000C05CDE4F0FB6F894DEBF0FBECDBFDF919A
:10066000CF911F910F91FF90EF90DF90CF90089561
:100670006093330370933403809335039093360370
:1006800010922E0310922D0310922C0310922B0324
:1006900010922A0362E080912F030E945E0261E0C3
:1006A00070E080E090E00E94BF0261E080912F0343
:1006B0000E945E0260E080912F030E9430028091D0
:1006C00030038551823020F58BE291E10197F1F7FB
:1006D00062E080912F030E945E0280913C0390E0D3
:1006E0008230910538F0880F991F880F991F059760
:1006F0000197F1F7F89480E00E94CF016F3F7F4FA0
:100700008F4F9F4F61F410923B03789480E0A0CF0D
:1007100064E170E080E090E00E94BF02D9CF81E008
:100720000E94CF016F3F7F4F8F4F9F4F61F38E012C
:100730000F5F1F4F6E012FEBC21A2EEFD20A780106
:1007400080E00E94CF01F7016083718382839383ED
:1007500081E00E94CF01F7016483758386839783CC
:10076000F8E0EF0EF11CEC14FD0451F7789430E042
:1007700020E0F801C080D180E280F380448155817F
:1007800066817781FFEFCF16DF06EF06FF0631F0B7
:100790004F3F8FEF58076807780719F410923B0313
:1007A000B5CFF90183E0F595E7958A95E1F7E65D28
:1007B000FC4F8081880FC416D506E606F70610F1B7
:1007C00080832F5F3F4F085F1F4F2832310589F626
:1007D00040912E0320912A0380912B03280F332769
:1007E000331F80912C03280F311D80912D03820F20
:1007F000932F911D99274817190681F681E0809360
:100800003B0326CF8160DCCFAF92BF92CF92DF92C5
:10081000EF92FF920F931F93CF93DF936C017B01B5
:100820008B01040F151FEB015E01AE18BF08C01746
:10083000D10759F06991D601ED91FC910190F081B9
:10084000E02DC6010995892B79F7C501DF91CF917C
:100850001F910F91FF90EF90DF90CF90BF90AF90DE
:100860000895FC01538D448D252F30E0842F90E0B6
:10087000821B930B541710F0CF960895019708959B
:10088000FC01918D828D981761F0A28DAE0FBF2F64
:10089000B11D5D968C91928D9F5F9F73928F90E0BA
:1008A00008958FEF9FEF0895FC01918D828D981729
:1008B00031F0828DE80FF11D858D90E008958FEF66
:1008C0009FEF0895FC01918D228D892F90E0805C2F
:1008D0009F4F821B91098F73992708958BED91E0AB
:1008E0000E94620421E0892B09F420E0822F089500
:1008F00080E090E0892B29F00E946E0481110C9415
:1009000000000895FC01A48DA80FB92FB11DA35AB2
:10091000BF4F2C91848D90E001968F739927848F1F
:10092000A689B7892C93A089B1898C918370806442
:100930008C93938D848D981306C00288F389E02DE3
:1009400080818F7D80830895EF92FF920F931F9394
:10095000CF93DF93EC0181E0888F9B8D8C8D981372
:100960001AC0E889F989808185FF15C09FB7F8947E
:10097000EE89FF896083E889F989808183708064CA
:1009800080839FBF81E090E0DF91CF911F910F9115
:10099000FF90EF900895F62E0B8D10E00F5F1F4F24
:1009A0000F731127E02E8C8D8E110CC00FB607FC33
:1009B000FACFE889F989808185FFF5CFCE010E94C1
:1009C0008204F1CFEB8DEC0FFD2FF11DE35AFF4FA9
:1009D000F0829FB7F8940B8FEA89FB89808180624F
:1009E000CFCFCF93DF93EC01888D8823B9F0AA890C
:1009F000BB89E889F9898C9185FD03C0808186FDDA
:100A00000DC00FB607FCF7CF8C9185FFF2CF808128
:100A100085FFEDCFCE010E948204E9CFDF91CF9117
:100A200008952091D0013091D1012817390771F430
:100A30009091CE018091CF01981741F0E091CE01C5
:100A4000F0E0E257FE4F808190E008958FEF9FEF36
:100A50000895EF92FF920F931F93CF93DF93DC01E2
:100A60005C96ED90FC905D97E114F10479F481E0DF
:100A700090E013969C938E93129790E080E0DF9124
:100A8000CF911F910F91FF90EF9008955196ED91A6
:100A9000FC91529750968C915097982F90950FB744
:100AA0005E962C915E97122F127021FD6095F8943E
:100AB0002081112319F1282B2083E7012197F1F7D9
:100AC00028E0462F50E0308160FF1AC0382B308379
:100AD000E7012197F1F7BA0175956795215089F7DC
:100AE000112381F08081892380830FBF5C968D91D3
:100AF0009C910197F1F781E090E0C1CF2923DCCFF1
:100B00003923E5CF9081892BEFCF0F931F93CF939C
:100B1000DF938C01D0E0C0E0F801EC0FFD1F649181
:100B2000662341F083E693E00E942905892B11F0AA
:100B30002196F2CFCE01DF91CF911F910F910895B1
:100B40002091D0013091D1012817390761F48091AB
:100B5000CF012091CE0190E0805C9F4F821B9109D4
:100B60008F739927089590E080E008952091D00137
:100B70003091D10128173907B9F49091CE018091B5
:100B8000CF01981789F0E091CE01F0E0E257FE4FD7
:100B900080812091CE0130E02F5F3F4F2F733327AC
:100BA0002093CE0190E008958FEF9FEF089590E09D
:100BB00080E008958F929F92AF92BF92CF92DF9282
:100BC000EF92FF920F931F93CF93DF936C017B0102
:100BD0008B01040F151F0E94F2024B015C01E7011B
:100BE000C017D107C8F40E94F202681979098A096E
:100BF0009B09603777418105910570F4D6018D918D
:100C00009C91DC01ED91FC910284F385E02D099526
:100C100097FDE6CF8993E4CFCE018E199F09DF912E
:100C2000CF911F910F91FF90EF90DF90CF90BF90E9
:100C3000AF909F908F900895FC0101900020E9F7FC
:100C40003197AF01481B590BBC0183E693E00C942C
:100C500004048F929F92AF92BF920F931F93CF93F2
:100C6000DF93CDB7DEB7A1970FB6F894DEBF0FBE06
:100C7000CDBF19A2423008F44AE08E010F5D1F4F2C
:100C8000842E912CB12CA12CA50194010E94E21874
:100C9000E62FB901CA01EA30F4F4E05DD801EE9321
:100CA0008D01232B242B252B79F790E080E01097E2
:100CB00019F0CD010E941C06A1960FB6F894DEBF74
:100CC0000FBECDBFDF91CF911F910F91BF90AF901D
:100CD0009F908F900895E95CE1CF6BE583E693E008
:100CE0000E9429050E94F2024AE00E94290688E635
:100CF00090E00C948505CF93DF93BC0190E080E0F9
:100D00004AE00E942906EC018BE491E00E941C0657
:100D10008C0F9D1FDF91CF910895CF93DF930E9499
:100D20008505EC018BE491E00E941C068C0F9D1F51
:100D3000DF91CF910895CF93DF930E941C06EC01C1
:100D40008BE491E00E941C068C0F9D1FDF91CF91D8
:100D50000895DC01ED91FC911197309761F01296A6
:100D60002D913C911397E217F30728F4019000208E
:100D7000E9F7ED93FC930895FC0180819181009740
:100D800039F0228133818217930710F40C94941662
:100D900090E080E008950F931F93CF93DF93EC01D1
:100DA000FB0101900020E9F78F01061B170B8A81D8
:100DB0009B81A801480F591F2C813D8124173507BD
:100DC00068F028813981A801820F931F0E948F1932
:100DD0004A815B81400F511F5B834A83DF91CF9132
:100DE0001F910F9108950F931F93CF93DF93CDB76A
:100DF000DEB728970FB6F894DEBF0FBECDBF8C01CB
:100E0000CB014AE0BE016F5F7F4F0E94E216BE0138
:100E10006F5F7F4FC8010E94CB0628960FB6F894EB
:100E2000DEBF0FBECDBFDF91CF911F910F9108950F
:100E30003F924F925F926F927F928F929F92AF926A
:100E4000BF92CF92DF92EF92FF920F931F93CF93B7
:100E5000DF93CDB7DEB7A3970FB6F894DEBF0FBE12
:100E6000CDBF5C012DB73EB73BA32AA360E070E085
:100E7000CB010E94BF02D50191968D919C919297D2
:100E8000912C029709F422C490968C9190978F5FD1
:100E900090968C9390975E962D913C915F97232B23
:100EA00019F0992493940BC48330D8F71A96ED91D6
:100EB000FC918281882309F4E7C3FE0131963F014A
:100EC00050E1452E512CD5011A96ED91FC9180816F
:100ED0009181DC01ED91FC910084F185E02D099573
:100EE000181619060CF0D0C345E050E0BE01695E4B
:100EF0007F4FF501828593850E94DA05009719F3EB
:100F0000059709F071C0888D998D982789279827B2
:100F1000998F888F0A8D1B8D1027012710271B8F13
:100F20000A8F892B09F460C08F89811173C00E94D8
:100F3000F202D50150966D937D938D939C935397B8
:100F400091962D913C918A8D9B8D232B09F05EC04B
:100F5000288D398D2130310509F058C0893091052F
:100F6000B1F1883C910519F0049709F044C00E9442
:100F70006D0689ED91E00E948505F5016089718912
:100F800082899389008D118D228D338D601B710BA9
:100F9000820B930B4AE00E94290684ED91E00E94A7
:100FA0008D06F50180899189A289B389808F918FFF
:100FB000A28FB38F21E030E032A321A3C5010E94AC
:100FC000B60E60E070E0CB010E94BF027CCF0E94B1
:100FD0006D0683ED92E00E948D0683E090E0D501DE
:100FE00092969C938E939197D5011A96ED91FC91D0
:100FF0001282912C64C30E946D068CEB92E00E94D9
:1010000085058A8D9B8D0E947B06EECF059709F0A2
:101010005ACFEACF0130B1E01B0790F00E946D0675
:101020008BEA92E00E9485058A8D9B8D0E947B064B
:10103000F50112A211A20284F385E02D128243CFA2
:101040008DB69EB6C80101962DB73EB7281B390B49
:101050000FB6F8943EBF0FBE2DBF4DB75EB74F5FC2
:101060005F4F7A01A801B701D5011A968D919C9125
:101070000E94DA058017910709F064C0EA8DFB8DA4
:10108000EE0DFF1D10820E94F202F501608B718B44
:10109000828B938B8F89843109F4BBC0E8F48F3045
:1010A00009F4B7C0813109F4C3C2863009F0E4C243
:1010B000488D598DD12CC12CF12CE12C08EC10E07D
:1010C00030E020E060E0C5010E94720C0FB6F89499
:1010D0009EBE0FBE8DBEF7CE8932F1F0873309F484
:1010E000BCC28D3109F0C8C281A192A1892B01F740
:1010F0000E946D0685EA92E00E948D0621E030E0B4
:10110000F50132A321A3C5010E94B60E60E070E094
:10111000CB010E94BF02CCCF86859785892B39F4FD
:1011200080E490E00E946F15F501978786870A8D0D
:101130001B8D0E0D1F1DFA82E9821C830B83E016A6
:10114000F10630F00FB6F8949EBE0FBE8DBE4CCFA8
:1011500040E450E0B701D5011E968D919C910E940C
:10116000A119D5011E96ED91FC9117AEC3010E9405
:10117000A906FC01808191818017910708F046C083
:1011800089819A810097F1F12B813C818217930725
:10119000C8F50E94B2168B010E946D0685E992E0A7
:1011A0000E948505D5011E968D919C91009711F0A6
:1011B0000E941C066AE383E693E00E942905C801A9
:1011C0000E947B06D5011A96ED91FC911B97128225
:1011D00092961C921E9291970E94F202DC01CB0122
:1011E00088589341A109B109F501848B958BA68B91
:1011F000B78B808B918BA28BB38B808F918FA28FBB
:10120000B38F64CF60E070E0CB01C5CF00E510E0A4
:10121000C3CF888D998DD5015F969C938E935E97F1
:10122000EA8DFB8DF9A3E8A36F01CE0CDF1CFD8EC8
:10123000EC8EDF8ECE8EEC14FD0408F08CC1D7014D
:101240000D911C91CE014C960E94A906FC01808153
:1012500091818C159D0508F07EC18C8D9D8DDC01E2
:101260002C91213409F065C001960E9494164EE03D
:10127000342E380E06970CF461C00637B2E71B0710
:1012800009F469C108F01DC30136F2E71F0709F42C
:1012900003C3043622E7120709F060C033243A94EE
:1012A0007A8A698A1C8A1B8A5E8A4D8A6CE571E09B
:1012B000CE0141960E94CB06032D10E0B801CE016D
:1012C00041960E94F306F801E951FE4F8491F8011E
:1012D000E25DFC4FF490065E1C4FF801049160E063
:1012E00070E0002389F081110E940702E02FF0E0F6
:1012F000EE0FFF1FEA5FFC4FA591B491EC91FE2227
:1013000061E070E009F460E0CE0141960E94F306CE
:101310000B891C890150110929893A89D12CC12CCA
:10132000F12CE12C50E040E064E1C5010E94720C18
:1013300012C1CE014C960E94BC06382E0637B2E789
:101340001B0709F42BC128F50136F2E71F0709F442
:10135000B3C0043622E7120709F4A2CF00371D46B6
:1013600009F46FC00E946D068BE792E00E9485052C
:10137000C7010E949B06D5015E964D915C91D12CD0
:10138000C12CF12CE12C02E010E030E020E060E024
:10139000CCCF043647E7140709F473C0063757E784
:1013A000150709F415C101361747E1F6CE014C9631
:1013B0000E94A906DC018D919C918C159D0508F079
:1013C000CAC061E0832D0E945E02CE014C960E944D
:1013D000BC068C0161E0832D0E945E02011511059F
:1013E00009F465C00F3F110509F090C061E060C0CD
:1013F000CE014C960E94BC06F82ECE014C960E945F
:10140000A9060C8D1D8D6EE471E0C8010E9498192B
:1014100060E0892B79F061E571E0C8010E949819BC
:10142000892B39F065E571E0C8010E949819892B74
:10143000E9F461E08F2D0E945E02CE014C960E947D
:10144000A9068C8D9D8D8C159D0508F084C0DC014E
:101450002C91213469F601960E9494163EE0F32EF9
:10146000F80E069754F2FF24FA94C7CF69E571E0AD
:10147000C8010E949819892B01F762E0DBCF332461
:101480003A94CE014C960E94A906DC018D919C9164
:101490008C159D0508F05FC061E0832D0E945E02FF
:1014A000CE014C960E94BC0661E0892B09F460E0F5
:1014B000832D0E9430024FC07A8A698A1C8A1B8A57
:1014C0005E8A4D8A6FE571E0CE0141960E94CB069F
:1014D000632D70E0CE0141960E94F306BDE0B31586
:1014E00010F4E2EF3E0E832D8770806480937C00C1
:1014F00080917A00806480937A0080917A0086FDE2
:10150000FCCF6091780070917900FECEE32DF0E081
:10151000E951FE4FE491E33039F148F4E130B9F09C
:10152000E230E9F0003811050CF060CFC0CFE730B1
:1015300029F1E83059F1E430A9F780918000806208
:101540008093800010938B0000938A0004C084B5C0
:10155000806884BD07BDF501178E168EB7CD84B5A2
:10156000806284BD08BDF7CF809180008068809341
:1015700080001093890000938800EDCF8091B00027
:1015800080688093B0000093B300E5CF8091B000F5
:1015900080628093B0000093B400DDCFE32DF0E0D3
:1015A000FA83E983BFE1B315B0F2EE0FFF1FE550F8
:1015B000FE4F259134912115310569F2E1E02E3C71
:1015C0003E0749F2C301F9010995C5CF33243A9486
:1015D000CE014C960E94A9062C8D3D8DC9018E1915
:1015E0009F0948A159A1481B590B3A8329835C8361
:1015F0004B835E834D83E32DF0E0FA8BE98B5FE153
:10160000531508F4A8CFEE0FFF1FE55CFD4F2591A1
:1016100034912115310509F49ECF81E02D3C380726
:1016200009F499CFB301CE014196F901099593CF01
:101630008A8D9B8D8E0D9F1DFA82E9829C838B8300
:10164000E816F90608F042CDC3010E94A906D501AB
:101650005F961C921E925E9739CD8A8D9B8D892B49
:1016600009F434CD0E946D068CE892E00E94850555
:10167000C7010E949B062ACDF50112A211A2028485
:10168000F385E02D128222CD0E94F2022B013C0153
:10169000F50102851385D80112969C90129781A1BD
:1016A00092A18130910509F090C091102FC0408E19
:1016B000518E628E738E12A211A212961C92D501C7
:1016C00090968C919097815090968C93892DAAA199
:1016D000BBA10FB6F894BEBF0FBEADBFA3960FB6A9
:1016E000F894DEBF0FBECDBFDF91CF911F910F9158
:1016F000FF90EF90DF90CF90BF90AF909F908F9032
:101700007F906F905F904F903F900895808991896E
:10171000A289B389A3019201281B390B4A0B5B0BE9
:10172000DA01C901893136EF9307A105B10560F0EF
:101730000E946D0684EF92E00E948D06D50192967C
:101740001C921E92919751CC893C9F4AA105B105EC
:1017500098F4F50184899589A689B789A301920136
:10176000281B390B4A0B5B0BDA01C901893C9F4AE4
:10177000A105B10508F495CBF501808D918DA28D61
:10178000B38DA3019201281B390B4A0B5B0BDA01C5
:10179000C90181379741A105B10508F482CBD12C4D
:1017A000C12CF12CE12C10E000E030E020E050E012
:1017B00040E066E0C5010E94720CD50158964D923A
:1017C0005D926D927C925B977ACF892B09F069CB01
:1017D000808D918DA28DB38D481A590A6A0A7B0AB1
:1017E0009920C9F0F1E74F16F7E15F066104710433
:1017F00008F457CB0E946D0686EE92E00E948D069B
:10180000D5011A96ED91FC911B97128292961C922B
:101810001E929197EECBB9E84B16B3E15B066104DB
:10182000710408F43ECB0E946D0686EC91E00E94A4
:101830008D06F80180819181DC01ED91FC9106809B
:10184000F781E02D099581E0F801828381E090E045
:10185000D5015D969C938E935C971C962D913C913F
:10186000F90101900020E9F731978F01021B130B5A
:10187000D12CC12CF12CE12C41E050E06DE1C501EF
:101880000E94720CF50184899589A689B789808F99
:10189000918FA28FB38F05CB7A8A698A1C8A1B8AA3
:1018A0005E8A4D8A6FE571E0CE0141960E94CB06BB
:1018B0006FEF70E0CE0141960E94F30633243A9414
:1018C00010CE043647E7140709F4D9CD063757E799
:1018D000150709F47BCE0136174709F043CD3324B1
:1018E0003A9464CD2F923F924F925F926F927F9283
:1018F0008F929F92AF92BF92CF92DF92EF92FF9220
:101900000F931F93CF93DF93CDB7DEB7C854D109A0
:101910000FB6F894DEBF0FBECDBF4C0168AF5AAF13
:1019200049AF27963FAF2EAF27971CAF0BAF299635
:10193000FFAEEEAE2997DEAECDAEDC011A96ED918C
:10194000FC911B978281882309F4C1C1662351F061
:10195000663041F06D3131F091968D919C910197F7
:1019600009F0B5C188AD8F50863080F5F401448907
:10197000558966897789C088D188E288F388C4163A
:10198000D506E606F70610F46A017B01F2E4CF0EF5
:10199000D11CE11CF11C0E94F202A7019601261B3A
:1019A000370B480B590BDA01C901B7FDAAC1C401B5
:1019B0000E9418070E94F202A7019601261B370B0E
:1019C000480B590BDA01C901B7FFF1CFF40180814F
:1019D0009181019709F0C5C082E090E091838083F6
:1019E000228133814481558166817781808591850B
:1019F000A0E0FE017A960E946E1909F495C1FBAB36
:101A0000EAAB1DAA1CAA88E190E09FAB8EAB63E510
:101A100071E0CE01C2960E94CB06D40112964C9082
:101A2000129713965C90139714966C9014971596D2
:101A30007C9015971696BC91BFAFF401F781219663
:101A4000FFAF2197D40118962C90189719963C90C7
:101A5000198E9201A3016FAD7F2FC101A0E00E94FA
:101A60006E1909F457C1FE0179962596FFAFEEAFC6
:101A7000259727E130E023963FAF2EAF23972AE04A
:101A8000A22EB12CC12CD12CE12CF12C00E010E0C5
:101A90009201A3016FAD21967FAD2197C1010E94F4
:101AA0000F19F901EE59FE4F80812596AEADBFADFD
:101AB00025978E932596BFAFAEAF25972396EEADB3
:101AC000FFAD239731972396FFAFEEAF23973AE010
:101AD000A32EB12CC12CD12CE12CF12C00E010E074
:101AE0009201A3016FAD21967FAD2197C1010E94A4
:101AF000111929013A016FAF21967FAF21971C017F
:101B0000A0E00E946E1939F023964EAD5FAD239789
:101B1000452B09F0B4CF23966EAD7FAD23976C0FA4
:101B20007D1F6E5F7F4F09F0FAC0EAA9FBA98CA95F
:101B30009DA99C012F5F3F4F3DAB2CABE80FF91FD8
:101B400010820CA91DA9015011092AA93BA9D12C69
:101B5000C12CF12CE12C50E040E065E1C4010E9471
:101B6000720C29AD3AAD232BB9F4D4015E960D90D9
:101B7000BC91A02DBAAFA9AFAB2B71F4F401848D49
:101B8000958D019609F4E5C0958F848FF401048C3E
:101B9000F58DE02DFAAFE9AF27962EAD3FAD279733
:101BA0000BAD1CAD0B5F1F4F232B11F405E010E0B4
:101BB00029964EAD5FAD299790E080E0452B11F05E
:101BC0008DAD9EAD080F191F58AD598389AD9AADE3
:101BD0009827892798279B838A838BAD9CADADADD1
:101BE000BEAD8A0F9B1F9827892798279D838C83DA
:101BF000D4011A96ED91FC9180819181DC01ED91E7
:101C0000FC910280F381E02D45E050E0BE016F5F62
:101C10007F4F099560E070E0CB010E94BF02B8AD34
:101C200085E0E82EF12CBB2309F444C0EBADFCADFC
:101C300095E0E92EF12CEF2BE9F0D4011A96ED9105
:101C4000FC9180819181DC01ED91FC910280F38116
:101C5000E02D4BAD5CAD27966EAD7FAD2797099516
:101C6000EBACFCACB5E0EB0EF11C60E070E0CB013E
:101C70000E94BF02EDADFEADEF2BE1F0D4011A964C
:101C8000ED91FC9180819181DC01ED91FC910280CC
:101C9000F381E02D4DAD5EAD29966EAD7FAD2997F8
:101CA0000995EDADFEADEE0EFF1E60E070E0CB01DC
:101CB0000E94BF02E016F10609F450C0D4019296CA
:101CC0001C921E9291971A96ED91FC911282C85B1C
:101CD000DF4F0FB6F894DEBF0FBECDBFDF91CF91BF
:101CE0001F910F91FF90EF90DF90CF90BF90AF903A
:101CF0009F908F907F906F905F904F903F902F902C
:101D00000895D40190968C91811160CEC4010E94F7
:101D100018075CCE80E3888FBE01685E7F4FCE01DE
:101D2000C2960E94CB060DCFFA83E9831C821B82E8
:101D300084E090E09E838D8364E871E0CE0101969B
:101D40000E94CB060B811C810150110929813A8127
:101D5000FECE81E090E0958F848F18CF0E94F20232
:101D6000F401648B758B868B978BB1CFAF92BF924A
:101D7000CF92DF92EF92FF920F931F93CF93DF9357
:101D8000CDB7DEB7CD5CD1090FB6F894DEBF0FBE7C
:101D9000CDBF5C01CE0188579F4FC853DF4F998359
:101DA0008883C85CD040C653DF4F19821882CA5C52
:101DB000D04080E490E0C453DF4F99838883CC5CAB
:101DC000D04063E771E0CE0188539F4F0E94CB065D
:101DD00068E771E0CE0188539F4F0E94CB0647E829
:101DE00050E063E770E0CE0101960E94D916C65319
:101DF000DF4FC880D980CA5CD04081E0C81AD108C2
:101E0000C853DF4FE880F980C85CD04007E810E095
:101E10009E012F5F3F4F50E040E061E1C5010E940D
:101E2000720CC353DF4F0FB6F894DEBF0FBECDBFA9
:101E3000DF91CF911F910F91FF90EF90DF90CF90A6
:101E4000BF90AF900895CF92DF92EF92FF920F93E1
:101E50001F93CF93DF93CDB7DEB7C658D1090FB626
:101E6000F894DEBF0FBECDBF7C018B01CE01019681
:101E7000CF57DF4F99838883C158D040CD57DF4F6C
:101E800019821882C358D04080E890E0CB57DF4FCA
:101E900099838883C558D04066E871E0CE018F579A
:101EA0009F4F0E94CB06B701CE018F579F4F0E94D4
:101EB000F306B801CE018F579F4F0E94F306CD570E
:101EC000DF4F08811981C358D04001501109CF5705
:101ED000DF4F28813981C158D040D12CC12CF12C41
:101EE000E12C50E040E064E18DE393E00E94720C4D
:101EF000CA57DF4F0FB6F894DEBF0FBECDBFDF91DC
:101F0000CF911F910F91FF90EF90DF90CF900895A8
:101F10008F929F92AF92BF92CF92DF92EF92FF92F9
:101F2000CF930E94FE02882349F0809130038B30CA
:101F300028F08D3040F085518230C8F160E070E0CB
:101F400080EC9FE71CC060912B0370E090E080E084
:101F50000E94D9172DEC3CEC4CEC5DE30E94651817
:101F60006B017C0160912A0370E090E080E00E94A8
:101F7000D9179B01AC01C701B6010E9435170E9419
:101F8000A1176B0170938D0160938C010E94FE027A
:101F9000882341F0809130038C3009F477C0C8F475
:101FA0008B3081F160E070E080EC9FE753C060917E
:101FB0002A0370912B0376276727762790E080E02D
:101FC0000E94D7172DEC3CEC4CEC5DE30E946518A9
:101FD000D6CF8551823030F7C0912C036C2F70E042
:101FE000762F662766277F7780912D03682B90E0F8
:101FF00080E00E94D7172DEC3CEC4CEC5DE30E9496
:10200000651860C060912C0370E090E080E00E9451
:10201000D7174B015C01C0912D03C7FF0AC0AC016B
:102020009B0160E070E080E89FEB0E9434174B0159
:102030005C01CF706C2F70E090E080E00E94D917B7
:102040002DEC3CEC4CEC5DE30E946518A50194017D
:102050000E9435170E94A11770938B0160938A012B
:10206000B60181E090E00E94230F60918A01709197
:102070008B0190E080E0CF91FF90EF90DF90CF90C8
:10208000BF90AF909F908F900C94230FC0912C0322
:102090006C2F70E090E080E00E94D7174B015C014C
:1020A00060912D036F7070E090E080E00E94D9177E
:1020B0002DEC3CEC4CEC5DE30E946518A50194010D
:1020C0000E943517C7FFC6CF9058C4CF1F920F92FA
:1020D0000FB60F9211242F933F938F939F93AF933B
:1020E000BF938091D3019091D401A091D501B0917B
:1020F000D6013091D20123E0230F2D3758F50196F8
:10210000A11DB11D2093D2018093D3019093D401DE
:10211000A093D501B093D6018091D7019091D801B9
:10212000A091D901B091DA010196A11DB11D809352
:10213000D7019093D801A093D901B093DA01BF9150
:10214000AF919F918F913F912F910F900FBE0F9064
:102150001F90189526E8230F0296A11DB11DD2CF1E
:102160001F920F920FB60F9211242F933F934F930C
:102170005F936F937F938F939F93AF93BF93EF93EF
:10218000FF938BED91E00E948204FF91EF91BF914C
:10219000AF919F918F917F916F915F914F913F91FF
:1021A0002F910F900FBE0F901F9018951F920F92B6
:1021B0000FB60F9211242F938F939F93EF93FF935A
:1021C000E091EB01F091EC018081E091F101F0915F
:1021D000F20182FD1BC090818091F4018F5F8F73AB
:1021E0002091F501821741F0E091F401F0E0E55211
:1021F000FE4F958F8093F401FF91EF919F918F9106
:102200002F910F900FBE0F901F9018958081F4CFE3
:102210001F920F920FB60F9211242F933F934F935B
:102220005F936F937F938F939F93AF93BF93EF933E
:10223000FF93E091D001F091D101309749F0A6854C
:10224000B7858585968D91FF14C09C918923A1F453
:10225000FF91EF91BF91AF919F918F917F916F917E
:102260005F914F913F912F910F900FBE0F901F9054
:1022700018959C91892361F7A389B4899C918589DC
:10228000809589238C93868997890197F1F7608DD2
:10229000718DA685B785558538E020E0CB01019783
:1022A000F1F7822F90E095958795282F4C91452343
:1022B00009F02068315091F7868D81FD209580913D
:1022C000CF0190E001968F7399273091CE01381796
:1022D00099F0A091CF01B0E0A257BE4F2C9380930C
:1022E000CF01828D938D0197F1F7A389B4898C91E9
:1022F0009589892B8C93ACCF868D8160868FF1CFA9
:102300001092DE011092DD0188EE93E0A0E0B0E0D3
:102310008093DF019093E001A093E101B093E2018B
:102320002BE231E03093DC012093DB0125EC30E03F
:102330003093E8012093E70124EC30E03093EA0188
:102340002093E90120EC30E03093EC012093EB0185
:1023500021EC30E03093EE012093ED0122EC30E0EF
:102360003093F0012093EF0126EC30E03093F2013E
:102370002093F1011092F4011092F5011092F601F0
:102380001092F70110926603109265038093670321
:1023900090936803A0936903B0936A038DE391E07F
:1023A000909364038093630310927A0310927903ED
:1023B00010927C0310927B0310927E0310927D0397
:1023C0001092800310927F03609181036E7F6D7F76
:1023D000609381036695617081E068278BE00E94BD
:1023E000300261E08BE00E945E02E9E3F3E0E491F9
:1023F000E0937303E5E2F3E0E491F0E0EE0FFF1FFA
:10240000E05FFC4F859194919093750380937403E2
:1024100060E08AE00E945E028091810381FD04C039
:1024200061E08AE00E9430028AE080936F03E8E373
:10243000F3E0E491E0937003E4E2F3E0E491F0E090
:10244000EE0FFF1FEA5FFC4F85919491909372030A
:1024500080937103109261031092600310926203E3
:1024600010923E0310923D0310923F0310924003DE
:1024700010924103109242031092430310924403BE
:10248000109245031092460380E693E09093480330
:102490008093470310924A031092490310924C0311
:1024A00010924B0310924D0310924E0310924F0363
:1024B0001092500310925103109252031092530342
:1024C0001092540310925503109256031092570322
:1024D0001092580310925A031092590310925C0301
:1024E00010925B0310925D0310925F0310925E03E3
:1024F00082E080932F038BE080933003E0E3F3E0EE
:10250000E491E0933103ECE1F3E0E491E0933203F2
:1025100080E89EE3A0E0B0E0809337039093380317
:10252000A0933903B0933A038FEF9FEF9093290361
:10253000809328030895789484B5826084BD84B51F
:10254000816084BD85B5826085BD85B5816085BDAE
:1025500080916E00816080936E0010928100809166
:1025600081008260809381008091810081608093EE
:102570008100809180008160809380008091B10013
:1025800084608093B1008091B00081608093B0003E
:1025900080917A00846080937A0080917A008260D2
:1025A00080937A0080917A00816080937A00809194
:1025B0007A00806880937A001092C10010927E03A6
:1025C00010927D0310927C0310927B0310927A0389
:1025D000109279038DE991E09093800380937F03BB
:1025E00090916F03963108F047C02DEB30E03093A7
:1025F0007A03209379032BE931E030937C03209315
:102600007B032CE231E030937E0320937D03209105
:10261000680084E0983048F031E09E3008F430E003
:1026200081E001C0880F3A95EAF7822B8093680019
:102630002DE630E0983050F02BE630E09E3030F060
:102640002CE630E0963110F030E020E03093770354
:1026500020937603292F30E0983008F0C8C081E03D
:1026600001C0880F9A95EAF78093780380917F03E1
:10267000909180030197F1F780917D0390917E0303
:10268000892B49F1E091D001F091D10123E0E336AB
:10269000F20709F1309739F0A389B4899C918589B3
:1026A000809589238C93809181038E7F8093810311
:1026B0001092CF011092CE0183E693E09093D10166
:1026C0008093D001E0917603F0917703808190911F
:1026D0007803892B8083E091EB01F091EC0182E09B
:1026E0008083E091E701F091E8011082E091E90137
:1026F000F091EA018FEC80831092F301E091EF01F9
:10270000F091F00186E08083E091ED01F091EE011F
:10271000808180618083E091ED01F091EE01808104
:1027200088608083E091ED01F091EE018081806806
:102730008083E091ED01F091EE0180818F7D8083B7
:1027400080E091E090934A03809349030E94F20253
:10275000DC01CB0188589341A109B1098093510351
:1027600090935203A0935303B093540380934D036B
:1027700090934E03A0934F03B0935003809355035F
:1027800090935603A0935703B09358030E946D068D
:102790008CEF90E00E948D06E0914703F091480392
:1027A0008BED91E091838083E0914703F0914803A2
:1027B000128210925F0310925E030E94F2026B017C
:1027C0007C0180915E0390915F030197E9F00E9484
:1027D000F2026C197D098E099F09603576448105E6
:1027E000910590F48DE393E00E941807EACF9E30A4
:1027F00040F42850310981E001C0880F2A95EAF79A
:1028000033CF2E503109F7CF80915E0390915F0353
:10281000019751F662E080912F030E945E020E94B0
:10282000F202605D774081099109609333037093F0
:102830003403809335039093360387E380933C03FE
:10284000809128039091290397FF21C00E94F202F2
:10285000E8E7F2E050E040E026E1249FD001259F28
:10286000B00D1124A858BD4FED01322F19923A95A1
:10287000E9F760837183828393834F5F5F4F76961E
:102880004830510551F71092290310922803809186
:102890002803909129030897B4F5E8E7F2E090E067
:1028A00080E024813581232B09F0D8C0268137812F
:1028B000232B09F0D3C026E1289FE001299FD00DEA
:1028C0001124C858DD4F88EE93E0A0E0B0E08B877C
:1028D0009C87AD87BE8788E89FE09D838C831A869E
:1028E000188A1F8681E08B8B0E94F20268837983AD
:1028F0008A839B838091280390912903019690936A
:1029000029038093280322242394312C8DE393E020
:102910000E9418070E94F2024B015C0108E712E0D6
:10292000E8011D8A1C8A8C819D81892B21F48E816E
:102930009F81892BA1F1488059806A807B80C501E5
:10294000B4016419750986099709CB84DC84ED8488
:10295000FE846C157D058E059F0508F1C114D10418
:10296000E104F10409F481C0A70196010E94E21874
:10297000C701B6010E94D218460E571E681E791E66
:10298000488259826A827B828B89882341F02F8515
:1029900038892115310509F06DC03D8A2C8A66966B
:1029A000A8E2B3E0AC17BD0709F0BBCFD0E0C0E0B0
:1029B000F80184899589892BD9F18285882309F4C6
:1029C0006DC00680F781E02DD80118968D919C91FD
:1029D0000995F80184899589029751F5809128031A
:1029E00090912903892B21F184819581892B21F4F0
:1029F00086819781892BE1F026E12C9FF0012D9FA4
:102A0000F00D1124E858FD4FDF011D922A95E9F7DA
:102A10000E94F202F8016083718382839383809124
:102A20002803909129030197909329038093280309
:102A300021960A5E1F4FC830D10509F0B9CF0E9418
:102A4000880F20E030E0232B09F460CF0E946E0451
:102A5000882309F45BCF0E94000058CF0196769638
:102A60008830910509F01DCF4ECF88829982AA82C5
:102A7000BB828ACF89899A898217930708F08FCF02
:102A80003D8A2C8A01969A8B898B8217930708F4CA
:102A900086CF82E090E09D8B8C8B81CF0480F58186
:102AA000E02D099596CF8DE391E090936403809398
:102AB00063038091D0019091D1018356934071F4CA
:102AC000E0917603F091770390818091780380956F
:102AD000892380831092D1011092D00108950F9321
:102AE0001F93CF93DF938230910510F482E090E042
:102AF000E0918403F091850330E020E0B0E0A0E0B5
:102B0000309799F42115310509F44AC0281B390B77
:102B100024303105D8F58A819B816115710589F1D1
:102B2000FB0193838283FE0111C0408151810281A8
:102B3000138148175907E0F04817590799F410977F
:102B400061F012960C93129713961C933296CF0154
:102B5000DF91CF911F910F910895009384031093FB
:102B60008503F4CF2115310551F04217530738F092
:102B7000A901DB019A01BD01DF01F801C1CFEF011D
:102B8000F9CF9093850380938403CDCFFE01E20FAC
:102B9000F31F819391932250310939832883D7CF32
:102BA0002091820330918303232B41F42091230150
:102BB00030912401309383032093820320912101DB
:102BC000309122012115310541F42DB73EB74091D6
:102BD000250150912601241B350BE0918203F091D1
:102BE0008303E217F307A0F42E1B3F0B28173907C6
:102BF00078F0AC014E5F5F4F2417350748F04E0F59
:102C00005F1F5093830340938203819391939FCFDF
:102C1000F0E0E0E09CCFCF93DF930097E9F0FC0178
:102C2000329713821282A0918403B0918503ED0143
:102C300030E020E01097A1F420813181820F931FB2
:102C400020918203309183032817390709F061C06E
:102C5000F0938303E0938203DF91CF910895EA011B
:102C6000CE17DF07E8F54A815B819E0141155105CA
:102C7000B1F7E901FB83EA8349915991C40FD51F4C
:102C8000EC17FD0761F4808191810296840F951FF6
:102C9000E90199838883828193819B838A83F0E011
:102CA000E0E012968D919C9113970097B9F52D91C4
:102CB0003C911197CD010296820F931F20918203C0
:102CC000309183032817390739F6309751F5109260
:102CD000850310928403B0938303A0938203BCCF37
:102CE000D383C28340815181840F951FC817D907B0
:102CF00061F44E5F5F4F88819981480F591F51835E
:102D000040838A819B81938382832115310509F059
:102D1000B0CFF0938503E09384039ECFFD01DC01E7
:102D2000C0CF13821282D7CFFC0188279927E8945D
:102D300021912032E9F3293010F02E30C8F32B32E4
:102D400041F02D3239F4689404C00E940217820FBA
:102D5000911D219120532A30C0F31EF49095819546
:102D60009F4F08951F93FC0199278827BC01E89481
:102D700011911032E9F3193010F01E30C8F31B32F4
:102D800051F01D3249F4689406C00E94ED16610F9F
:102D9000711D811D911D119110531A30B0F33EF435
:102DA00090958095709561957F4F8F4F9F4F1F91A4
:102DB0000895FB01DC0102C005900D924150504086
:102DC000D8F70895BB274A3031F4992322F4BDE2A5
:102DD000909581959F4F0C940B17592F482F372FA3
:102DE000262F660F771F881F991F660F771F881F72
:102DF000991F620F731F841F951F660F771F881F0F
:102E0000991F08957AE0979F902D879F802D910DAF
:102E100011240895BB27FB015527AA27880F991F66
:102E2000AA1FA41710F0A41B83955051B9F7A05DF9
:102E3000AA3308F0A95DA193009779F7B111B19376
:102E40001192CB010C942417DC01FC01672F7191C6
:102E50007723E1F7329704C07C916D937083629180
:102E6000AE17BF07C8F308955058BB27AA270E9482
:102E70004C170C942B180E941D1838F00E9424182F
:102E800020F039F49F3F19F426F40C941A180EF42C
:102E9000E095E7FB0C941418E92F0E943C1858F3B6
:102EA000BA17620773078407950720F079F4A6F52F
:102EB0000C945E180EF4E0950B2EBA2FA02D0B018A
:102EC000B90190010C01CA01A0011124FF27591B6F
:102ED00099F0593F50F4503E68F11A16F040A22F75
:102EE000232F342F4427585FF3CF469537952795E6
:102EF000A795F0405395C9F77EF41F16BA0B620BE5
:102F0000730B840BBAF09150A1F0FF0FBB1F661F2B
:102F1000771F881FC2F70EC0BA0F621F731F841F6E
:102F200048F4879577956795B795F7959E3F08F094
:102F3000B0CF9395880F08F09927EE0F9795879556
:102F400008950E94A8176894B1110C945F18089511
:102F50000E94441888F09F5798F0B92F9927B751CD
:102F6000B0F0E1F0660F771F881F991F1AF0BA952D
:102F7000C9F714C0B13091F00E945E18B1E0089515
:102F80000C945E18672F782F8827B85F39F0B93F07
:102F9000CCF3869577956795B395D9F73EF49095E0
:102FA0008095709561957F4F8F4F9F4F0895E8945E
:102FB00009C097FB3EF490958095709561957F4F81
:102FC0008F4F9F4F9923A9F0F92F96E9BB2793952F
:102FD000F695879577956795B795F111F8CFFAF43F
:102FE000BB0F11F460FF1BC06F5F7F4F8F4F9F4F70
:102FF00016C0882311F096E911C0772321F09EE8CE
:10300000872F762F05C0662371F096E8862F70E033
:1030100060E02AF09A95660F771F881FDAF7880F0D
:103020009695879597F9089597F99F6780E870E0DE
:1030300060E008959FEF80EC089500240A9416162E
:10304000170618060906089500240A941216130696
:10305000140605060895092E0394000C11F4882324
:1030600052F0BB0F40F4BF2B11F460FF04C06F5F40
:103070007F4F8F4F9F4F089557FD9058440F551F16
:1030800059F05F3F71F04795880F97FB991F61F0EA
:103090009F3F79F087950895121613061406551F61
:1030A000F2CF4695F1DF08C0161617061806991FCD
:1030B000F1CF86957105610508940895E894BB27C2
:1030C00066277727CB0197F908950E9478180C940A
:1030D0002B180E941D1838F00E94241820F0952308
:1030E00011F00C9414180C941A1811240C945F18F5
:1030F0000E943C1870F3959FC1F3950F50E0551F47
:10310000629FF001729FBB27F00DB11D639FAA273C
:10311000F00DB11DAA1F649F6627B00DA11D661F8B
:10312000829F2227B00DA11D621F739FB00DA11DAC
:10313000621F839FA00D611D221F749F3327A00D66
:10314000611D231F849F600D211D822F762F6A2F02
:1031500011249F5750409AF0F1F088234AF0EE0F67
:10316000FF1FBB1F661F771F881F91505040A9F794
:103170009E3F510580F00C9414180C945F185F3F2B
:10318000E4F3983ED4F3869577956795B795F795D0
:10319000E7959F5FC1F7FE2B880F911D9695879548
:1031A00097F90895DB018F939F930E940419BF91B3
:1031B000AF91A29F800D911DA39F900DB29F900D86
:1031C00011240895A1E21A2EAA1BBB1BFD010DC0FC
:1031D000AA1FBB1FEE1FFF1FA217B307E407F507C7
:1031E00020F0A21BB30BE40BF50B661F771F881FA3
:1031F000991F1A9469F760957095809590959B0139
:10320000AC01BD01CF0108950E948019A59F900DCA
:10321000B49F900DA49F800D911D11240895689472
:1032200001C0E8948F929F92CF93DF930E941D1963
:10323000DF91CF919F908F90089588249924F40175
:10324000E401B0E49F93AA279A158B049C04ED0532
:10325000FE05CF05D007A10798F4AD2FDC2FCF2FA7
:10326000FE2FE92D982C892E982F872F762F652FEA
:10327000542F432F322F2227B85031F7BF9127C048
:103280001B2EBF91BB27220F331F441F551F661FE4
:10329000771F881F991F881C991CEE1FFF1FCC1FCA
:1032A000DD1FAA1FBB1F8A149B04EC05FD05CE057C
:1032B000DF05A007B10748F08A189B08EC09FD0953
:1032C000CE09DF09A00BB10B21601A94E1F62EF4B0
:1032D0009401AF01BE01CD01000C08950024A7FDAB
:1032E00000942A17300540055005600570058005DB
:1032F00090050895EE0FFF1F0590F491E02D0994BD
:10330000A29FB001B39FC001A39F700D811D112426
:10331000911DB29F700D811D1124911D0895FB0117
:10332000DC0102C001900D9241505040D8F7089541
:10333000FB01DC018D91019080190110D9F3990BEB
:103340000895FB01DC014150504048F001900D927E
:103350000020C9F701C01D9241505040E0F7089588
:1033600011E0C2EAD1E004C0FE010E947A19219660
:0A337000C33AD107C9F7F894FFCF64
:10337A004456676443785A413333346165676F4D05
:10338A0052515F31526E4377744E4B744C315069CF
:10339A000000008603800000000000A40404043139
:1033AA0004F10462044004540400000000290504E6
:1033BA0004D705CE01A005B60511050D0A00696EF0
:1033CA00006F75740070776D007075006477006126
:1033DA0077003031323334353637383961626364D5
:1033EA00656600746D706C00544D504C36513865EA
:0A33FA004D516F4F6200767700001E
:00000001FF
